:100000000C9432060C945A060C945A060C945A0618
:100010000C945A060C945A060C945A060C945A06E0
:100020000C945A060C945A060C94071B0C94761BDD
:100030000C945A060C945A060C945A060C945A06C0
:100040000C945A060C945A060C945A060C945A06B0
:100050000C945A060C945A060C945A060C94A81D3B
:100060000C945A060C945A060C945A060C945A0690
:100070000C945A060C945A060C945A060C945A0680
:100080000C945A060C945A060C945A060C945A0670
:100090000C94F21D0C945A060C945A060C945A06B1
:1000A0000C945A060C945A060C945A062200FF210E
:1000B0000000000000000000002A2B2800000000C3
:1000C0000000000000000000000000000000000030
:1000D000002C9EB4A0A1A2A434A6A7A5AE362D37AD
:1000E00038271E1F20212223242526B333B62EB7FE
:1000F000B89F8485868788898A8B8C8D8E8F909116
:1001000092939495969798999A9B9C9D2F3130A3A2
:10011000AD350405060708090A0B0C0D0E0F10116A
:1001200012131415161718191A1B1C1DAFB1B0B5F0
:100130000000000000003E5B4F5B3E3E6B4F6B3E9D
:100140001C3E7C3E1C183C7E3C181C577D571C1CDA
:100150005E7F5E1C00183C1800FFE7C3E7FF001835
:10016000241800FFE7DBE7FF30483A060E2629791E
:100170002926407F050507407F05253F5A3CE73C7F
:100180005A7F3E1C1C08081C1C3E7F14227F221430
:100190005F5F005F5F06097F017F006689956A6087
:1001A0006060606094A2FFA29408047E040810209E
:1001B0007E201008082A1C08081C2A08081E101097
:1001C00010100C1E0C1E0C30383E3830060E3E0E41
:1001D00006000000000000005F00000007000700AC
:1001E000147F147F14242A7F2A1223130864623692
:1001F000495620500008070300001C22410000411E
:10020000221C002A1C7F1C2A08083E080800807057
:10021000300008080808080000606000201008048A
:10022000023E5149453E00427F40007249494946DD
:100230002141494D331814127F1027454545393C5B
:100240004A49493141211109073649494936464948
:1002500049291E000014000000403400000008146A
:1002600022411414141414004122140802015909E3
:10027000063E415D594E7C1211127C7F4949493638
:100280003E414141227F4141413E7F494949417FB1
:10029000090909013E414151737F0808087F004167
:1002A0007F41002040413F017F081422417F4040B0
:1002B00040407F021C027F7F0408107F3E41414185
:1002C0003E7F090909063E4151215E7F09192946F1
:1002D000264949493203017F01033F4040403F1F07
:1002E0002040201F3F4038403F631408146303043C
:1002F0007804036159494D43007F4141410204089C
:100300001020004141417F0402010204404040406E
:1003100040000307080020545478407F28444438A4
:100320003844444428384444287F385454541800EE
:10033000087E090218A4A49C787F0804047800446D
:100340007D40002040403D007F1028440000417F58
:1003500040007C047804787C0804047838444444E1
:1003600038FC1824241818242418FC7C08040408D9
:10037000485454542404043F44243C4040207C1CF2
:100380002040201C3C4030403C44281028444C90E5
:1003900090907C4464544C4400083641000000773F
:1003A0000000004136080002010204023C26232618
:1003B0003C1EA1A161123A4040207A38545455594C
:1003C0002155557941225454784221555478402082
:1003D000545579400C1E527212395555555939549D
:1003E00054545939555454580000457C4100024535
:1003F0007D420001457C407D1211127DF0282528A8
:10040000F07C545545002054547C547C0A097F49A3
:1004100032494949323A4444443A324A4848303AE7
:100420004141217A3A42402078009DA0A07D3D4282
:1004300042423D3D4040403D3C24FF2424487E490B
:1004400043662B2FFC2F2BFF0929F620C0887E093D
:100450000320545479410000447D413048484A32D9
:10046000384040227A007A0A0A727D0D19317D26C1
:1004700029292F28262929292630484D40203808A7
:1004800008080808080808382F10C8ACBA2F102828
:1004900034FA00007B000008142A142222142A14C3
:1004A000085500550055AA55AA55AAFF55FF55FFF6
:1004B000000000FF00101010FF00141414FF0010C3
:1004C00010FF00FF1010F010F0141414FC001414AE
:1004D000F700FF0000FF00FF1414F404FC141417CD
:1004E000101F10101F101F1414141F00101010F0F4
:1004F000000000001F101010101F10101010F0103E
:10050000000000FF101010101010101010FF10004D
:100510000000FF140000FF00FF00001F1017000084
:10052000FC04F414141710171414F404F40000FF5E
:1005300000F714141414141414F700F714141417F7
:100540001410101F101F141414F4141010F010F0D5
:1005500000001F101F0000001F14000000FC14000A
:1005600000F010F01010FF10FF141414FF141010FE
:10057000101F00000000F010FFFFFFFFFFF0F0F081
:10058000F0F0FFFFFF0000000000FFFF0F0F0F0F54
:100590000F3844443844FC4A4A4A347E0202060674
:1005A000027E027E0263554941633844443C044064
:1005B0007E201E2006027E020299A5E7A5991C2A2C
:1005C000492A1C4C7201724C304A4D4D30304878EB
:1005D0004830BC625A463D3E494949007E0101010E
:1005E0007E2A2A2A2A2A44445F444440514A4440ED
:1005F00040444A51400000FF0103E080FF00000832
:10060000086B6B083612362436060F090F060000F9
:1006100018180000001010003040FF0101001F01F9
:10062000011E00191D1712003C3C3C3C000000005C
:1006300000000103070F1F3F7F0080C0E0F0F8FCBF
:10064000FE070605040100080A0B0C0D0900000056
:10065000002300260029002C002F000000000200CB
:10066000090F0000030401000C000000000000005E
:1006700000000000000000000000080B0002020261
:10068000000009040000010202000005240010011E
:1006900005240101010424020605240600010705C2
:1006A000810310004009040100020A000000070550
:1006B0000202400000070583024000000403090411
:1006C00012010002EF0201404123368000010102C5
:1006D000030141726475696E6F204C4C4300417296
:1006E0006475696E6F204C656F6E6172646F000097
:1006F000000000240027002A002D003000DB40A469
:10070000A62EAF2000A1C8D300408DAED580A8048E
:100710000802011040804010204080408008020400
:100720000180402010020110801020404020000075
:100730000000250028002B002E00310004040404D2
:100740000403040502020202040302020202060676
:10075000060606060404020202040400006000000B
:10076000000000000000000000000000E0000000A9
:100770000000000000000000000001E00000000098
:1007800000000000000000000001F0000000000078
:10079000000000000000000003F000000000000066
:1007A0000000000000000007F00000000000000052
:1007B00000000000000007F800000000000000003A
:1007C00000000000000FF800000003C0007E0000E1
:1007D00001E0007F0FF800000003C000FE000001F0
:1007E000E000FFEFF800000003C000FE000001E0A1
:1007F00000FFFFF800000003C000F00000000F0041
:100800007FFE7FC0000003C000F00000000F003F2B
:10081000FE7FF83FF1FBCFFCFEF3BC3DEFE01FFE97
:100820007FFF7FFBFFDFFEFEFFBC3DEFE01FC6FF4B
:10083000FF7FFBFFDFFEFEFFBC3DEFE00FE3C7FEE7
:10084000787BC3DE1EF0FFBC3DEF0007FF87FC781E
:100850007BC3DE1EF0F83C3DEF0001FFFFF0007BA4
:10086000C3C01EF0F03C3DEF0001F37FE03FFBC34F
:10087000CFFEF0F03C3DEF0003E33F807FFBC3DFA2
:10088000FEF0F03C3DEF0007E73C00787BC3DE1E46
:10089000F0F03C3DEF0007FFBE00787BC3DE1EF0AA
:1008A000F03C3DEF0007FFFE00787BC3DE1EF0F05A
:1008B0003C3DEF000FFFFE007FFBFFDFFEF0F03F4F
:1008C000FDEFE00FFFFF007FFBFFDFFEF0F03FFDDD
:1008D000EFE00FF9FF003E79F9CF9EF0F01F3DE702
:1008E000E01FF1FF00000000000000000000000019
:1008F0001F80FF007FFFFFFFFFFFFFFFFFFFE01CE8
:10090000007F007FFFFFFFFEB46D888D18E00000C0
:100910001F007FFFFFFFFE95AD7DB577E000000F64
:10092000007FFFFFFFFEA5AD9D8D19E000000600D2
:100930007FFFFFFFFEB5ADEDB57EE00000000000DB
:1009400001800000000000000000000380000000A3
:1009500000000000000007C00000000000000000D0
:100960000007C00000000000000000000FC00000F1
:10097000000000000000001FE00000000000000078
:1009800000001FE00000000000000000003FE00049
:1009900000000000000000003FF000000000000028
:1009A0000000007FF0000000000000001FF87FF052
:1009B000000000000000003FFE7FF000000000008B
:1009C00000003FFF7FF0000000000000001FFFFB61
:1009D000E0000000000000000FFFF9FFC000000071
:1009E0000000000FFFF9FFF800000000000007FF03
:1009F000F1FFFF00000000000003FC73FFFF800018
:100A00000000000001FE3FFFFF800000000000002A
:100A1000FF1E0FFF000000000000007FFE1FFC0013
:100A20000000000000003FFFFFF800000000000091
:100A3000000FDFFFE0000000000000001F19FFC0F2
:100A4000000000000000003F3CFF0000000000002C
:100A500000007E7CF800000000000000007FFE7CAB
:100A60000000000000000000FFFFFC00000000008C
:100A7000000000FFFFFE0000000000000000FFFF7C
:100A8000FE0000000000000001FFEFFE000000007B
:100A900000000001FFCFFE0000000000000003FF87
:100AA00007FE0000000000000003FC07FE0000003D
:100AB0000000000003F003FE000000000000000141
:100AC0008000FE000000000000000000007E00002A
:100AD00000000000000000003E00000000000000D8
:100AE0000000000C000000000000078000FC000077
:100AF00003C0000000078001FC000003C0000000EC
:100B0000078001FC000003C0000000078001E00036
:100B100000001E000000078001E00000001E007FB2
:100B2000E3F79FF9FDE7787BDFC0FFF7FFBFFDFD2F
:100B3000FF787BDFC0FFF7FFBFFDFDFF787BDFC0E5
:100B4000F0F787BC3DE1FF787BDE00F0F787BC3D26
:100B5000E1F0787BDE0000F787803DE1E0787BDE26
:100B6000007FF7879FFDE1E0787BDE00FFF787BF1E
:100B7000FDE1E0787BDE00F0F787BC3DE1E0787BCB
:100B8000DE00F0F787BC3DE1E0787BDE00F0F78720
:100B9000BC3DE1E0787BDE00FFF7FFBFFDE1E07FD9
:100BA000FBDFC0FFF7FFBFFDE1E07FFBDFC07CF3B1
:100BB000F39F3DE1E03E7BCFC0000000000000005D
:100BC00000000000FFFFFFFFFFFFFFFFFFFFC0FF70
:100BD000FFFFFFFD68DB111A31C0FFFFFFFFFD2B98
:100BE0005AFB6AEFC0FFFFFFFFFD4B5B3B1A33C0B0
:100BF000FFFFFFFFFD6B5BDB6AFDC005010902A182
:100C0000010901A100850105091901290315002524
:100C1000019503750181029501750581030501099F
:100C200030093109381581257F750895038106C083
:100C3000C005010906A1018502050719E029E7158C
:100C400000250175019508810295017508810395BC
:100C5000067508150025730507190029738100C062
:100C6000521FAD2811241FBECFEFDAE0DEBFCDBF8B
:100C700023E0ACECB1E001C01D92A439B207E1F76A
:100C800011E0A0E0B1E0E0EDF6E502C005900D92C4
:100C9000AC3CB107D9F716E0C1E3D6E004C0219718
:100CA000FE010E944E29C033D107C9F70E94782067
:100CB0000C945B2B0C9400000895FC018091C00201
:100CC000882311F13FB7F89482E08093E9002091E6
:100CD000F200822F90E01816190614F481E090E0DB
:100CE000882339F0289844E64093BF024091F100F0
:100CF0004083222339F02091F200211103C02BE61A
:100D00002093E8003FBF08958FEF9FEF0895089567
:100D100008954091AC025091AD022091AA02309109
:100D2000AB0242175307B4F49091E8009570E1F3D9
:100D30009091E80092FD19C08093F1008091AC027F
:100D40009091AD0201968F739927892B19F48EEF3C
:100D50008093E8008091AC029091AD02019690934F
:100D6000AD028093AC0281E0089580E00895DF92A7
:100D7000EF92FF920F931F93CF93DF93D82E8A01A8
:100D8000EB017B01E40EF51ECE15DF0559F0D7FE11
:100D900012C0FE0184910E94890621968111F4CF30
:100DA0000FEF1FEFC801DF91CF911F910F91FF90BF
:100DB000EF90DF9008958881EECF2FB7F894877079
:100DC0008093E9009091E800892F807295FF04C01C
:100DD0009091F20080E4891B2FBF0895615030F09C
:100DE0002091F100FC0120830196F8CF289884E639
:100DF0008093BF020895AF92BF92CF92DF92EF929D
:100E0000FF920F931F93CF93DF936C017B018B01B4
:100E1000040F151FEB015E01AE18BF08C017D10704
:100E200059F06991D601ED91FC910190F081E02D8E
:100E3000C6010995892B79F7C501DF91CF911F91E3
:100E40000F91FF90EF90DF90CF90BF90AF900895FB
:100E50008091A20281110DC082E080939E0284E005
:100E600080939F021092A1021092A00281E08093D1
:100E7000A2028EE992E008950F931F93CF93DF9320
:100E80001F92CDB7DEB782E0898342E450E06AE783
:100E900076E080E80E94B7060E942807DC011296DF
:100EA0000D911C910115110589F0D801ED91FC916E
:100EB0000280F381E02DBE016F5F7F4FC80109956D
:100EC00097FD04C0F80100851185ECCF89810F9052
:100ED000DF91CF911F910F910895CF93DF931F92D0
:100EE000CDB7DEB76983DC01ED91FC910280F3811F
:100EF000E02D41E050E0BE016F5F7F4F09950F90FC
:100F0000DF91CF91089583E08093E9008091F20012
:100F1000882319F08AE38093E800089583E00E9413
:100F2000DD0690E00895CF93DF931F92CDB7DEB733
:100F3000FC018485958597FD08C02FEF3FEF35872D
:100F400024870F90DF91CF910895CE0101960E94E2
:100F50005D06019719F4898190E0F3CF8FEF9FEF41
:100F6000F0CF0F931F93CF93DF931F92CDB7DEB7D0
:100F70008C01FC018485958597FF0BC0CE010196FD
:100F80000E945D06019771F4898190E0F8019587D0
:100F90008487F801848595850F90DF91CF911F910B
:100FA0000F9108958FEF9FEFF1CFFC018485958518
:100FB00097FD0BC09FB7F89482E08093E900809181
:100FC000F2009FBF90E0019608959FB7F89482E0E9
:100FD0008093E9008091F2009FBF90E008958150D6
:100FE0008F3008F047C0E82FF0E0E750F84F0C943E
:100FF0004E2916081A0808080E0812083A083A0876
:101000003A081D08230827082B0831083A08350834
:10101000809180008F778093800008958091800078
:101020008F7DF9CF80918000877FF5CF84B58F7752
:1010300084BD089584B58F7DFBCF809190008F771C
:10104000809390000895809190008F7DF9CF8091DA
:101050009000877FF5CF8091C0008F778093C0008C
:1010600008958091C0008F7DF9CF8091C200877F65
:101070008093C2000895CF93DF93282F30E0F901C9
:10108000E55AF94F8491F901E15FF84FD491F901E4
:10109000E45CF84FC491CC23A1F081110E94EF07CA
:1010A000EC2FF0E0EE0FFF1FE35BF94FA591B49139
:1010B000EC91ED2381E090E009F480E0DF91CF91A5
:1010C000089580E090E0FACF1F93CF93DF93282F0D
:1010D00030E0F901E55AF94F8491F901E15FF84FE9
:1010E000D491F901E45CF84FC491CC23A9F0162FF8
:1010F00081110E94EF07EC2FF0E0EE0FFF1FE25D81
:10110000F84FA591B4918FB7F894EC91111108C0E4
:10111000D095DE23DC938FBFDF91CF911F9108958F
:10112000DE2BF8CFCF93DF9390E0FC01E15FF84F27
:101130002491845C984FFC0184918823C9F090E04D
:10114000880F991FFC01E151F94FA591B491FC0161
:10115000E25DF84FC591D49161110DC09FB7F8942D
:101160008C91209582238C938881282328839FBF8C
:10117000DF91CF910895623051F49FB7F8943C917C
:10118000822F809583238C93E8812E2BEFCF8FB70E
:10119000F894EC912E2B2C938FBFEACF8251E82F3D
:1011A000F0E0EF5BF94FE49190917B008E2F880F78
:1011B000880F80729F7D892B80937B00E770E064AD
:1011C000E0937C0080917A00806480937A00809123
:1011D0007A0086FDFCCF8091780090917900089587
:1011E0003FB7F89480919A0290919B02A0919C0243
:1011F000B0919D0226B5A89B05C02F3F19F001961E
:10120000A11DB11D3FBFBA2FA92F982F8827BC0160
:10121000CD01620F711D811D911D42E0660F771F88
:10122000881F991F4A95D1F708958F929F92AF9288
:10123000BF92CF92DF92EF92FF926B017C010E94EE
:10124000F0084B015C01C114D104E104F104B9F0D0
:101250000E94F008681979098A099B09683E734061
:101260008105910580F321E0C21AD108E108F10857
:1012700088EE880E83E0981EA11CB11CE4CFFF907D
:10128000EF90DF90CF90BF90AF909F908F90089598
:101290007F928F929F92AF92BF92CF92DF92EF9206
:1012A000FF920F931F93CF93DF93C82E8B017A0188
:1012B0008091C002811110C08FEF9FEFDF91CF911D
:1012C0001F910F91FF90EF90DF90CF90BF90AF9064
:1012D0009F908F907F9008958091B00280FF05C00D
:1012E0008091E00082608093E000CE2DDF2DD12C34
:1012F0008AEFB82E8C2D8770982E8C2D8072882EB8
:101300008C2D8074782E9AE3A92E209719F4DD2075
:1013100009F452C08C2D0E94DD0681110AC0BA94D6
:10132000BB2051F261E070E080E090E00E9415097E
:10133000ECCF8C171D0611F00CF08C2F9FB7F89492
:101340009092E9002091E80025FD02C09FBFDDCF0B
:10135000282F30E0C21BD30B882029F08150A0F049
:101360001092F100FBCFF801C7FC0AC0815050F089
:1013700041914093F100FACF44914093F1003196AE
:101380008150D0F7020F131FDD2021F0A092E8005A
:10139000D12CDCCF8091E80085FD07C0A092E80049
:1013A000DD24D394209791F2F3CF209779F677201C
:1013B00069F2A092E800CACF5D9884E68093AF02FC
:1013C000C7017CCFCF93DF93EC018091120188237A
:1013D00031F083E00E9448091816190634F081E0C4
:1013E00090E09B838A8380E090E0DF91CF91089525
:1013F000EF92FF920F931F93CF93DF93EC01EC805A
:10140000FD806E157F050CF070C057FF04C0240FDF
:10141000351F50E040E08E819F81FA01E20FF31FFB
:101420008E179F071CF49C01241B350B1216130604
:101430000CF05BC0922F842F8695869586958E9DA5
:10144000D0018F9DB00D11246A0F7B1FAF8DB8A105
:10145000A60FB71F477049F188E0841B482F682FFB
:1014600070E0FB01E75CF94FE491281708F063C0D6
:10147000621B71092FEF30E002C0359527956A9500
:10148000E2F7E2230130110539F0B0F10230110525
:1014900061F58C91E82702C08C91E82BEC939417AE
:1014A00020F12C813D81A20FB31FE92FE41BE8300E
:1014B00078F00230110521F58E2F9C9190959C9328
:1014C0002C813D81A20FB31F88508830B0F7E770A0
:1014D000EE2359F0F0E0EF5CF94FE4910130110593
:1014E000F9F010F10230110519F1DF91CF911F9140
:1014F0000F91FF90EF900895E0958C91E823CECF67
:1015000081E00115110509F480E081959E2F8C93EF
:101510002C813D81A20FB31F98509830C0F7D7CFD0
:101520008C91E82BEC93E1CFE0958C91E823FACFF6
:101530008C91E827F7CF0130110509F4ADCFE0F227
:101540000230110509F4A5CFAE0DBF1DAECF0F932C
:101550001F93CF93DF9377FF04C0260F371F70E0F0
:1015600060E0DC011496CD91DC91FB01E20FF31FEA
:10157000CE17DF071CF49E01261B370B121613062D
:101580004CF5FA0157FD3796A3E0F595E795AA9536
:10159000E1F7EC9FD001ED9FB00DFC9FB00D112441
:1015A0006A0F7B1FDC015F96ED91FC91E60FF71F40
:1015B0004770552781E090E001C0880F4A95EAF70F
:1015C000482F0130110559F0A8F02E0F3F1F0230AF
:1015D0001105E1F0DF91CF911F910F9108952E0F2A
:1015E0003F1FE217F307B1F38191DF011197842BBD
:1015F0008C93F7CF80952E0F3F1FE217F30751F31F
:101600009191DF01119798239C93F7CFE217F3078D
:1016100009F38191DF01119784278C93F7CF0F9302
:101620001F93FA01DC0156964C9156974230E9F02F
:101630004330A1F1413061F514964D915C91DA018E
:10164000AE1BBF0BFD01E21BF30B77FD0BC0DC01F2
:1016500016964D915C916417750724F4AB01BF0198
:101660000E94A70A1F910F91089514964D915C91C5
:10167000DA01A61BB70BBD0161507109DC0116969A
:101680004D915C91DA01AE1BBF0BFD01E21BF30B28
:1016900077FDE8CFAF010E94F809E4CF16964D918F
:1016A0005C91DA01A61BB70BBD0161507109CDCF6A
:1016B0000F931F93FA01DC0156964C9156974230D6
:1016C000A9F0433091F1413019F514964D915C9198
:1016D000DA01AE1BBF0BFD013197F7FD04C0AB0172
:1016E000BF010E94F8091F910F91089514964D9122
:1016F0005C91DA01A61BB70BBD01DC0116964D917A
:101700005C91DA01AE1BBF0BFD013197621B730BBD
:10171000F7FDE9CFDC0116964D915C91E417F507D2
:1017200014F7AF010E94A70ADECF16964D915C9187
:10173000DA01A61BB70BBD01621B730BCECFFC01F8
:1017400077FD64C080859185681779070CF05EC0CD
:1017500057FD5CC082859385481759070CF056C029
:1017600086898230B1F0833029F1813041F484815F
:101770009581841B950BAB01BC016150710921302F
:10178000310509F108F443C02230310509F463C082
:10179000089584819581DC01A61BB70BBD016150C2
:1017A000710986819781DC01A41BB50BAD01415005
:1017B0005109E5CF86819781861B970BBA01AC0151
:1017C00041505109DCCFCA0157FD0796A3E095951A
:1017D0008795AA95E1F7A481B5818A9F90018B9F97
:1017E000300D9A9F300D1124620F731F078CF0A1EA
:1017F000E02DE60FF71F4770552721E030E001C0CC
:10180000220F4A95EAF78081822B80830895CA01CE
:1018100057FD079633E0959587953A95E1F7A481B2
:10182000B5818A9F90018B9F300D9A9F300D1124B6
:10183000620F731F078CF0A1E02DE60FF71F4770B2
:10184000552781E090E001C0880F4A95EAF780951E
:1018500090818923DACFCA0157FD079623E0959539
:1018600087952A95E1F7A481B5818A9F90018B9F86
:10187000300D9A9F300D1124620F731F078CF0A159
:10188000E02DE60FF71F4770552721E030E001C03B
:10189000220F4A95EAF780818227B7CF08958EBD3F
:1018A00000000DB407FEFDCF8EB508958CBD9DBD23
:1018B00008950895FC016370668B8481958126816B
:1018C0003781613039F0633029F091878087338721
:1018D00022870895318720879387828708952F92E2
:1018E0003F924F925F926F927F928F929F92AF92B0
:1018F000BF92CF92DF92EF92FF920F931F93CF93FD
:10190000DF93CDB7DEB76A970FB6F894DEBF0FBE90
:10191000CDBF9A8F898F7A8369834A01D22E188727
:101920000F833701BC2CDC0159962D913C915A97BD
:101930002115310509F015C118968D919C911997C3
:10194000681779070CF0D7C11A968D919C914817AA
:1019500059070CF0D0C14C2C512CB6E0CB9E600D39
:10196000711D11247C876B87161617060CF0C3C1F6
:10197000EA2DF0E0FA87E98793E0EE0FFF1F9A95D2
:10198000E1F7F88BEF87CF01840F951F1816190622
:101990000CF0B1C1A98DBA8D58968C91811104C0FB
:1019A000BFEABD1508F4D394A98DBA8DED91FC91D1
:1019B00011970284F385E02DCD010995B5E0DB9EFA
:1019C000C0011124E981FA81FC83EB83312C212CA5
:1019D0009C012F5C3E4F388F2F8B4A2D50E05E8B41
:1019E0004D8BEF89F88DE20DF31D44919E828D821F
:1019F000D12CC12C69817A81620D731D7A8B698B20
:101A0000842F90E09C8B8B8BE98DFA8DA081B18126
:101A100040FF82C0F1E0BF126FC0AF126DC01C96D4
:101A2000ED91FC912F813885A4014C0D5D1D6989D4
:101A30007A89898D9A8D0995EB89FC89F595E795C9
:101A40004E2F5FEFC51AD50A6D817E818D899E89E3
:101A5000680F791F7E836D8398E0C916D10481F6E3
:101A6000AFEF2A1A3A0AEB81FC81E40DF51DFC83E5
:101A7000EB83F5E02F16310409F0B3CF2F813885C1
:101A800026153705B9F0A98DBA8DED91FC91B1E01D
:101A9000BB1257C0AB1255C069817A816B5F7F4F13
:101AA0000088F189E02D830128E030E0A401898DD0
:101AB0009A8D0995A98DBA8DED91FC9111970688A3
:101AC000F789E02DCD016A960FB6F894DEBF0FBE00
:101AD000CDBFDF91CF911F910F91FF90EF90DF90DD
:101AE000CF90BF90AF909F908F907F906F905F90BE
:101AF0004F903F902F9009941E96ED91FC91EF80AE
:101B0000F88409851A8592014D815E816B817C8103
:101B1000898D9A8D099590CF2F81388526153705A7
:101B200009F48ACF31E0B31207C0A31205C01C9696
:101B3000ED91FC91930178CF1E96ED91FC9173018C
:101B4000E0CF6B857C85641975090684F785E02DE7
:101B500073010F8518899201A401898D9A8D0995C9
:101B6000A9CFF90134969491329745915491D91A9D
:101B7000B7E0DB9E400D511D1124F90125913491F0
:101B80003C8B2B8BFA0125903490FA01329674909D
:101B900031963491398B329664903196449041E07D
:101BA0004C1518F04A1508F07FC0662D062C000C65
:101BB000770B7C836B83842D042C000C990B9E8304
:101BC0008D83A98DBA8DED91FC9111970284F385D7
:101BD000E02DCD010995512CD12CC12CEA2DF0E03E
:101BE000FA87E9872B2D30E03C872B87A401440D31
:101BF000511D47FC5A95588F4F8B69817A81660D2C
:101C0000711D67FC7A957E876D877989C71608F004
:101C100051CF2C2D30E04D815E81420F531FA9859D
:101C2000BA854A9FC0014B9F900D5A9F900D112479
:101C3000FC01E80DF91DF88BEF87852D612C4F898C
:101C4000588D420F531F5E8B4D8B671408F050C0A8
:101C500044244394480E877041F4C1010196EB89F6
:101C6000FC89E20DF31DD4901C01D7FE19C0A98D8B
:101C7000BA8DED91FC91662D70E0B1E0BB1219C0F8
:101C8000AB1217C02D853E85620F731F0484F58546
:101C9000E02D2F8138854D895E89898D9A8D099532
:101CA000DD0C6394842DD1CF1E821D821C821B8289
:101CB00088CF4B815C81640F751FAB85BC856A9FA3
:101CC000C0016B9F900D7A9F900D112469817A81DC
:101CD000680F791F0684F785E02DEF80F884098569
:101CE0001A859D014F855889898D9A8D0995D8CF80
:101CF000570CC3948ACF6A960FB6F894DEBF0FBE16
:101D0000CDBFDF91CF911F910F91FF90EF90DF90AA
:101D1000CF90BF90AF909F908F907F906F905F908B
:101D20004F903F902F9008958F929F92AF92CF92B5
:101D3000EF92FF920F931F93CF93DF93EC01262F27
:101D4000898D9A8D009709F051C06A30D1F41D86B3
:101D50001C868D8948E0849F900111248E859F8583
:101D6000820F931F9F878E8781E090E0DF91CF9154
:101D70001F910F91FF90EF90CF90AF909F908F9019
:101D800008956D3089F3CC88AD888F898823C1F0A0
:101D90008C859D8536E0C39E800D911D112448855C
:101DA00059854817590764F44E855F851D861C8642
:101DB00038E0A39EC0011124840F951F9F878E8752
:101DC000EA88FB88088919894E855F856C857D8541
:101DD000CE010E946F0C2C898C859D8546E0249F46
:101DE000800D911D11249D878C87BECF6A3069F4C8
:101DF0001D861C86FC013896E4912D898E859F8571
:101E0000E29F800D911D1124ADCF6D3009F4ACCF50
:101E1000FC0134963491631708F4A6CF3296E4910E
:101E2000E61708F4A1CFFC01329685909490462FD6
:101E3000431B342F47E0349F800C911C1124F40184
:101E4000329634913196E4913323A9F1EE2399F13E
:101E5000CC88F4013596E491AD884F89442301F193
:101E60000E2E000CFF0BE30FF11DCE9EA001CF9EA6
:101E7000500D11246C857D85460F571F6885798527
:101E8000641775076CF44E855F851D861C86FC0102
:101E90003896E491AE9E400D511D11245F874E8708
:101EA000EA88FB88088919894E855F856C857D8560
:101EB000CE010E946F0CF4013496E4912C898C853C
:101EC0009D85E29F800D911D11248DCF6F927F9291
:101ED0008F929F92AF92BF92CF92DF92EF92FF923A
:101EE0000F931F93CF93DF93EC016B015A013901DC
:101EF0004801E881F9810284F385E02D0995E881A4
:101F0000F9810288F389E02D87019301A501B601CB
:101F1000CE010995A501480D591D41505109E8818F
:101F2000F9810288F389E02D9301B601CE0109956C
:101F3000E881F9810088F189E02D9401A501B601BD
:101F4000CE010995C60CD71CB60161507109E88114
:101F5000F9810088F189E02D9401A501CE01099550
:101F6000E881F9810688F789E02DCE01DF91CF91D4
:101F70001F910F91FF90EF90DF90CF90BF90AF90A7
:101F80009F908F907F906F9009946F927F928F9225
:101F90009F92AF92BF92CF92DF92EF92FF920F93F8
:101FA0001F93CF93DF935C01EB016A014901380174
:101FB0008701DC01ED91FC916217730719F5641636
:101FC00075062CF0962D872D3A01C92ED82E960134
:101FD000261937092F5F3F4F048CF58DE02DA301A3
:101FE000BE01C5010995DF91CF911F910F91FF901F
:101FF000EF90DF90CF90BF90AF909F908F907F90A9
:102000006F9008954615570591F42617370724F069
:10201000892D4B01C22FD82F9E01281939092F5F16
:102020003F4F068CF78DE02DA601B401DACF028474
:10203000F385E02D0995D501ED91FC910488F58992
:10204000E02D83019401A601BE01C5010995D501CA
:10205000ED91FC910688F789E02DC501DF91CF91C4
:102060001F910F91FF90EF90DF90CF90BF90AF90B6
:102070009F908F907F906F900994EF92FF920F93B3
:102080001F93DC011A960D911C911B9718962D91A8
:102090003C911997ED91FC9100A0F1A1E02D7B01FD
:1020A00050E040E070E060E009951F910F91FF90D3
:1020B000EF9008954F925F926F927F928F929F92CE
:1020C000AF92BF92CF92DF92EF92FF920F931F9346
:1020D000CF93DF936C012B015A0139014801DC01D8
:1020E000ED91FC910284F385E02D0995E201640CE9
:1020F000751CD601ED91FC91C615D7055CF40088DE
:10210000F189E02D87019401A501BE01C601099561
:102110002196EFCF0688F789E02DC601DF91CF9198
:102120001F910F91FF90EF90DF90CF90BF90AF90F5
:102130009F908F907F906F905F904F9009948F92B7
:102140009F92AF92BF92CF92DF92EF92FF920F9346
:102150001F93CF93DF93EC015B014A016901E88192
:10216000F9810284F385E02D099595012C0D3D1D23
:1021700021503109E881F9810488F589E02D780141
:102180008401A401B501CE010995E881F981068891
:10219000F789E02DCE01DF91CF911F910F91FF9034
:1021A000EF90DF90CF90BF90AF909F908F90099469
:1021B0008F929F92AF92BF92CF92DF92EF92FF9257
:1021C0000F931F93CF93DF93EC015B014A016901E9
:1021D0007801E881F9810284F385E02D0995C80C26
:1021E000D91C860101501109E881F9810488F5891B
:1021F000E02D9501A401B501CE010995E881F98191
:102200000688F789E02DCE01DF91CF911F910F91C4
:10221000FF90EF90DF90CF90BF90AF909F908F9006
:102220000994EF92FF920F931F93DC01ED91FC91C3
:1022300000A0F1A1E02D09951F910F91FF90EF9063
:1022400008950F931F93DC01ED91FC91068CF78D9F
:10225000E02D09951F910F9108950F931F93DC01B5
:10226000ED91FC91048CF58DE02D09951F910F9156
:102270000895DC01ED91FC910084F185E02D099435
:102280003F924F925F926F927F928F929F92AF9206
:10229000BF92CF92DF92EF92FF920F931F93CF9353
:1022A000DF935C017B014A016901390187E0680E17
:1022B000711C93E0759467949A95E1F72B01400E99
:1022C000511E10E000E0312CD0E0C0E0CE0187705C
:1022D0009927330C892B59F4FE0183E0F595E79596
:1022E0008A95E1F7E00FF11FE80DF91D349037FEF4
:1022F0000AC021E030E0A701B5016C0F7D1F80E529
:1023000093E00E9439112196CC16DD06F9F68FEF85
:10231000E81AF80A060D171DE414F504A9F6DF9172
:10232000CF911F910F91FF90EF90DF90CF90BF90D2
:10233000AF909F908F907F906F905F904F903F9065
:1023400008952F923F924F925F926F927F928F9259
:102350009F92AF92BF92CF92DF92EF92FF920F9334
:102360001F93CF93DF9300D000D000D0CDB7DEB75E
:102370003C016A013E832D83FC82EB825801A41A42
:10238000B50AB7FE03C0B194A194B1088D809E80B8
:10239000861A970A97FE03C09194819491088A1433
:1023A0009B045CF0902F812F0D811E819D838E8375
:1023B0009C2D8D2D6B01692F782F0C151D055CF060
:1023C0009D818E817E836D83692F782F902F812F41
:1023D0008601C92ED82E1601201A310A2B012D8113
:1023E0003E81421A530A57FE03C05194419451084A
:1023F000710137FE03C03FEFE31AF30AF594E79447
:102400008D819E81861797075CF5A1E0B0E0BA83C5
:10241000A983C016D1064CF1D301ED91FC9104843F
:10242000F585E02D2B813C81A8016D817E818A1488
:102430009B041CF04D815E81B801C3010995E4182D
:10244000F508F7FE0AC02D813E8189819A81280F07
:10245000391F3E832D83E20CF31C0F5F1F4FD9CF32
:102460002FEF3FEF3A832983D4CF26960FB6F89407
:10247000DEBF0FBECDBFDF91CF911F910F91FF90B7
:10248000EF90DF90CF90BF90AF909F908F907F9014
:102490006F905F904F903F902F90089520914B0246
:1024A000260F3327331F21323105ECF420916F02C0
:1024B000FC0190E080E0243069F082E00895A09172
:1024C0004B022191AC01455D5D4FA40FB52FB11DAD
:1024D0002C930196861798F380914B02680F6093B6
:1024E0004B0280E0089581E0089510926F0281E030
:1024F000809371021092700261E082E00E94640891
:1025000061E083E00E946408E9EBF0E080818E7F67
:10251000808380818D7F808388E48093B80085E408
:102520008093BC000895CF93DF9391E090932A02AB
:102530008823B9F0C091B800D091BA008091BC0056
:102540008A7B8093BC0060E082E00E94640860E0C7
:1025500083E00E9464080E947512D093BA00C09371
:10256000B800DF91CF910895E091B8028091B70251
:10257000E81730F4F0E0EB5FFD4F808190E00895C4
:102580008FEF9FEF08959091B8028091B7022FEFDF
:102590003FEF981748F4E92FF0E0EB5FFD4F208103
:1025A00030E09F5F9093B802C90108958091B7020F
:1025B0009091B802891B990B0895CF92DF92EF9208
:1025C000FF920F931F93CF93DF937C01CB018A017E
:1025D0002091C402222389F0EB016B01C40ED51EA9
:1025E000CC15DD0569F06991D701ED91FC91019061
:1025F000F081E02DC7010995F3CF642F0E944E12A0
:10260000C801DF91CF911F910F91FF90EF90DF9064
:10261000CF900895CF93DF931F92CDB7DEB7698334
:102620002091C4022223F9F02091C102203258F0F7
:1026300021E030E0FC013383228390E080E00F90C2
:10264000DF91CF9108958091C202E82FF0E0EB5125
:10265000FE4F998190838F5F8093C2028093C10265
:1026600081E090E0ECCF61E0CE0101960E944E1235
:10267000F7CFCF92DF92EF92FF920F931F93CF93FA
:10268000DF93D091C10281E0D13208F09CC0C091AB
:10269000C3020E94F0086B017C0180916F028111DE
:1026A0006CC082E080936F0281E0809371028FEFB3
:1026B00080936E0210929302D0939202A5EEB1E045
:1026C000E2E7F2E080E0D8138DC01092940280918E
:1026D0009402CC0FC82BC093940280917002813079
:1026E00009F084C0109270020E94F0086B017C0116
:1026F000809194028093BB008091260290912702E2
:10270000A0912802B0912902892B8A2B8B2BA1F052
:102710000E94F008009126021091270220912802C1
:10272000309129026C197D098E099F090617170738
:102730002807390708F442C08091BC0083FDD8CF38
:1027400085EC8093BC000E94F0086B017C018091B5
:102750006F02823009F44CC080916E028F3F09F401
:1027600069C080916E02803209F466C080916E0269
:10277000803309F463C084E026C0809126029091E2
:102780002702A0912802B0912902892B8A2B8B2B3A
:1027900009F483CF0E94F0080091260210912702CD
:1027A00020912802309129026C197D098E099F0918
:1027B000061717072807390708F06FCF8091250201
:1027C0000E94931285E01092C2021092C1021092F0
:1027D000C402DF91CF911F910F91FF90EF90DF9096
:1027E000CF9008959D9191938F5F6DCF85EEA9CF86
:1027F0008091260290912702A0912802B09129028F
:10280000892B8A2B8B2B09F4A2CF0E94F008009110
:1028100026021091270220912802309129026C197A
:102820007D098E099F09061717072807390708F041
:102830008ECFC4CF80E0C7CF82E0C5CF83E0C3CFC7
:10284000EF92FF920F931F93CF93DF937C01C62FDC
:1028500080916D0390916E03009709F459C0209107
:10286000710331E03093C4022093C3021092C2027C
:102870001092C102DC01ED91FC910190F081E02DFC
:1028800060E009958701EE24E394F12CD1E0C1507A
:1028900080916D0390916E03CF3F91F1B0E2EB1602
:1028A000F104D8F00E94391380916D0390916E036A
:1028B00020917103D093C4022093C3021092C202EC
:1028C0001092C102DC01ED91FC910190F081E02DAC
:1028D00060E00995EE24E394F12C80916D039091D2
:1028E0006E03F8016491DC01ED91FC910190F0819F
:1028F000E02D0995BFEFEB1AFB0A0F5F1F4FC7CF03
:10290000DF91CF911F910F91FF90EF900C943913AD
:10291000E0917D03F0917E03908180918303809507
:10292000892380838701C15008F438C0F80184915D
:1029300020916B0330916C03232B29F00E944F0CE4
:102940000F5F1F4FF0CF28E030E040E8E0917903BF
:10295000F0917A0390918103582F5423D9F050813C
:10296000952B9083E0917B03F0917C0390815091B3
:102970008203952B9083E0917B03F0917C0350813F
:10298000909182039095952390834695215031092B
:10299000E9F6D6CF508190959523E3CFDF91CF9183
:1029A0001F910F91FF90EF9008951F93CF93DF93A6
:1029B000EC018D8D9E8D009721F1162F29A131E01C
:1029C0003093C4022093C3021092C2021092C1023B
:1029D000DC01ED91FC910190F081E02D60E0099522
:1029E0008D8D9E8DDC01ED91FC910190F081E02DAB
:1029F000612F09958D8D9E8DDF91CF911F910C9444
:102A00003913ADA5BEA59C918BA9809589238C9384
:102A10008B8D9C8D892B31F0862FDF91CF911F916B
:102A20000C944F0C28E030E080E8A9A5BAA599A93C
:102A3000462F4823C1F04C91942B9C93ABA5BCA589
:102A40009C914AA9942B9C93ABA5BCA54C919AA9A7
:102A5000909594239C9386952150310931F7DF910D
:102A6000CF911F9108954C9190959423E6CF1F9399
:102A7000CF93DF93EC01162F8D8D9E8D892BB1F1B5
:102A80002DA93EA94FA958AD60E074E284EF90E013
:102A90000E942C2920513109410951095695479529
:102AA000379527952093B80066EA111167EACE01A1
:102AB0000E94D5148D8D9E8D892B41F129AD3AADA3
:102AC0004BAD5CAD60E074E284EF90E00E942C2995
:102AD0002051310941095109569547953795279558
:102AE0002093B800DF91CF911F9108958B8D9C8D1D
:102AF000892B21F08EAD9FAD0E94560CEFA5F8A951
:102B000090818CA9809589238083CECFEFA5F8A9E9
:102B100080819CA9892B8083E5CFDC01FB01129683
:102B20002C911297848195812817190641F491817F
:102B30008081813A31F49D7F81E0913009F080E01D
:102B400008958132E1F79B3029F482811F968C939E
:102B500081E008959A3099F7828150968C93F8CF4E
:102B6000AF92BF92CF92DF92EF92FF920F931F939B
:102B7000CF93DF931F92CDB7DEB77C0169836A01E3
:102B8000590141E050E0BE016F5F7F4FFC0183813E
:102B90000E9448098C0197FD0BC0F7018381A501B4
:102BA000B60180640E944809080F191F97FD8C0127
:102BB000C8010F90DF91CF911F910F91FF90EF907F
:102BC000DF90CF90BF90AF900895DC01FB0188E4C7
:102BD000808389E4818384E482831D969C911D9780
:102BE0009F709F5B93831D968D919C9124E0969599
:102BF00087952A95E1F78F708F5B848385E0089530
:102C0000EF92FF920F931F93CF93DF93FB012081ED
:102C1000213871F52381223259F5DC0112964C914D
:102C2000248135814217130619F5EC010B851C85AB
:102C3000F12CE12C0115110589F0F8014481558131
:102C40006281738180E80E94B7068F3F980749F040
:102C5000E80EF91ED8010D911C91ECCF81E08F8711
:102C6000C701DF91CF911F910F91FF90EF900895D1
:102C700090E080E0F6CFCF93DF93CDB7DEB76997D2
:102C80000FB6F894DEBF0FBECDBFFC01DB018C9107
:102C90008F5F8C939E012D5F3F4F8DE0D9011D9278
:102CA0008A95E9F729E0298384E08A8391E09D836E
:102CB00083E08E832A8721E22B879C879D879F87CD
:102CC00022E2288B27E02B8B25E02C8B8E8B20E4B7
:102CD00030E0388F2F8B998F82818B839585868505
:102CE000998B8A8B838180688D8B49E150E0BE018E
:102CF0006F5F7F4F80E00E94B70669960FB6F89429
:102D0000DEBF0FBECDBFDF91CF910895CF93DF938C
:102D10008091DD01811167C081E08093D0018093B3
:102D2000D10126ED31E03093D3012093D2011092EE
:102D3000D5011092D40123E231E03093CD012093EC
:102D4000CC011092D8011092D7011092DA011092A2
:102D5000D9018093DB018093DC0181EC8093D60163
:102D60000E942807FC0181819091D001482F490FD2
:102D70005527551F483051059CF5A281B381109706
:102D800009F52CEC31E03383228320812093CE019E
:102D90008093CF018091D101820F80832091D20155
:102DA000A22FB091D3018A2F821B8917C8F4818189
:102DB0003D91C82FD0E0C050DF4F38838F5F8183B3
:102DC000F2CFD90118962D913C9119972115310513
:102DD000C1F72CEC31E019963C932E931897D5CF80
:102DE00081E08093DD018CEC91E0DF91CF9108953B
:102DF000CF93DF9300D000D0CDB7DEB790912303FF
:102E000099838A836B834C830E94861624E030E08A
:102E1000AE014F5F5F4F61E00E94B0150F900F90C1
:102E20000F900F90DF91CF910895CF93DF93EC0136
:102E30000E94861628E030E0AE0162E0DF91CF917B
:102E40000C94B015E2E3F3E0168217821086118627
:102E500012861386148286E393E00C941517CF92A2
:102E6000DF92EF92FF920F931F93CF93DF936C014A
:102E7000EB017B01E40EF51E10E000E0CE15DF054E
:102E800081F069916D30D1F3D601ED91FC91019003
:102E9000F081E02DC6010995892B19F00F5F1F4FB6
:102EA000EDCFC801DF91CF911F910F91FF90EF906F
:102EB000DF90CF900895DC01683888F16858169645
:102EC0008C911697861721F117968C911797861774
:102ED000F9F018968C9118978617D1F019968C9165
:102EE00019978617A9F01A968C911A97861781F070
:102EF0001B968C911B97861759F0FD01369690E032
:102F000080E02191211139C08A0F9B1FFC0166834B
:102F1000CD0104960E94151781E090E00895E62FF8
:102F2000F0E067FF11C0E058F10921E030E001C096
:102F3000220FEA95EAF714968C911497822B149637
:102F40008C93149760E0BBCFEF54FF4F64916111F5
:102F500009C081E090E013969C938E93129790E0C5
:102F600080E0089567FFABCF14968C911497826030
:102F700014968C9314976F77A2CF019686309105A3
:102F800009F0BFCFE6CFEF92FF920F931F93CF933D
:102F90008C01C62F0E945B177C01C838C8F0C85846
:102FA000F80186E0CC2321F09681C91301C0168276
:102FB000815031968111F6CFC80104960E941517F1
:102FC000C7019927CF911F910F91FF90EF9008951E
:102FD000EC2FF0E0C7FF0FC0E058F10981E090E06E
:102FE00001C0880FEA95EAF78095F801948189235A
:102FF0008483C0E0D5CFEF54FF4FC491CC2301F3BD
:10300000C7FFCECFF80184818D7F8483CF77C8CF6F
:10301000089590E080E008952091420330914303A9
:10302000DC0114964D915C91159724173507D9F45E
:10303000E0913E03F0913F036D917C913097D9F080
:1030400061157105A1F4232BC9F0808190E008C0BF
:10305000232BA1F0FB01808190E09195819591094E
:1030600021E0892B09F020E081E082270895CF013B
:103070000E944B2BF5CF6115710551F721E0F4CF7C
:103080002091420330914303232B39F421E0FC01CA
:103090008081882361F020E00AC0BC0180913E035A
:1030A00090913F030E944B2B21E0892BA1F781E0F7
:1030B000822708952091560330915703C90107963E
:1030C00097FD079623E0959587952A95E1F720913E
:1030D000540330915503829FA001839F500D929F0E
:1030E000500D112470E060E080916F0390917003A7
:1030F0000C94442BDF92EF92FF920F931F93CF9388
:10310000DF930E945A1883E08093640380936503E1
:1031100081E090E090936303809362039093610356
:103120008093600310925D0310925C0310925F0322
:1031300010925E03409142035091430360913E031D
:1031400070913F0380E593E00E94FB0642E050E06F
:1031500067E871E080E593E00E94FB0680916D03D3
:1031600090916E03892B09F498C0209185033091CA
:103170008603409187035091880360E074E284EFF6
:1031800090E00E942C29205131094109510956959E
:103190004795379527952093B80065E08CEA90E035
:1031A0000E94201460915403615080E593E00E94D6
:1031B000D5142091560330915703C901079697FD06
:1031C000079633E0959587953A95E1F7209154035A
:1031D00030915503829F8001839F100D929F100DA7
:1031E0001124C0916F03D091700380916D03909171
:1031F0006E030C0F1D1F009709F48FC020917103FF
:1032000031E03093C4022093C3021092C2021092A4
:10321000C102DC01ED91FC910190F081E02D60E4B0
:103220000995EE24E394F12CDD24D39480916D0371
:1032300090916E030C171D0709F446C0B0E2EB161F
:10324000F104D8F00E94391380916D0390916E03C0
:1032500020917103D092C4022093C3021092C20243
:103260001092C102DC01ED91FC910190F081E02D02
:1032700060E40995EE24E394F12C80916D03909124
:103280006E036991DC01ED91FC910190F081E02DDC
:103290000995BFEFEB1AFB0AC9CF80916B039091A0
:1032A0006C03892B31F080918E0390918F030E94E3
:1032B000560CE0917F03F09180039081809184030C
:1032C00080958923808369CF0E94391380916D0393
:1032D00090916E03892B09F461C02091890330918C
:1032E0008A0340918B0350918C0360E074E284EF79
:1032F00090E00E942C29205131094109510956952D
:103300004795379527952093B800DF91CF911F916E
:103310000F91FF90EF90DF900895E0917D03F09181
:103320007E03808190918303892B80830C171D0776
:1033300069F2899120916B0330916C03232B19F072
:103340000E944F0CF3CF28E030E040E8E091790391
:10335000F0917A0390918103582F5423D9F0508132
:10336000952B9083E0917B03F0917C0390815091A9
:103370008203952B9083E0917B03F0917C03508135
:103380009091820390959523908346952150310921
:10339000E9F6CCCF508190959523E3CFE0917F0360
:1033A000F0918003808190918403892B8083ADCF3D
:1033B0000E94362B0F931F93CF93DF93EC018881EC
:1033C0009981009759F02A813B812617370730F001
:1033D00081E0DF91CF911F910F9108958B016F5F75
:1033E0007F4F0E94792A009759F0998388831B8325
:1033F0000A832C813D81232B59F7FC011082E8CFF1
:1034000080E0E7CFCF93DF93EC018881998100972B
:1034100011F00E94F029198218821D821C821B82E1
:103420001A82DF91CF910895EF92FF920F931F932D
:10343000CF93DF93EC01FB01E080F180E114F10414
:1034400011F10481158101151105A9F08C819D816F
:10345000080F191FB801CE010E94DA19882399F0CC
:10346000288139818C819D81B701820F931F0E9431
:10347000542B1D830C83CE01DF91CF911F910F91AF
:10348000FF90EF900895CE010E94021AF4CFEF92C0
:10349000FF920F931F93CF93DF93EC017B018A017F
:1034A000BA010E94DA1981110BC0CE010E94021AE2
:1034B000CE01DF91CF911F910F91FF90EF90089572
:1034C0001D830C83B701888199810E94542BF0CF12
:1034D00023E08E33920761F0FC01608171816115F8
:1034E000710549F0448155818EE393E00E94471AAB
:1034F0008EE393E008958EE393E00E94021AF8CFE2
:10350000FB0101900020E9F73197AF01461B570BF3
:103510000C94471A0F931F93CF93DF93CDB7DEB769
:1035200062970FB6F894DEBF0FBECDBF8C01CB0102
:10353000F8011182108213821282158214824AE0ED
:10354000BE016F5F7F4F0E94C028BE016F5F7F4F3B
:10355000C8010E94801A62960FB6F894DEBF0FBEB3
:10356000CDBFDF91CF911F910F910895FC01118282
:1035700010821382128215821482FB0101900020B6
:10358000E9F73197AF01461B570B0C94471AFC0122
:1035900080819181009711F00C94F029089585EDB8
:1035A0008093BC008091260290912702A09128026E
:1035B000B09129020796A11DB11D23E0B695A795EC
:1035C000979587952A95D1F72091BC0024FD03C0DB
:1035D00010926F0208954091260250912702609147
:1035E000280270912902452B462B472B69F300973F
:1035F000A105B10541F025E32A95F1F700000197F7
:10360000A109B109E1CF809125020C9493121F9278
:103610000F920FB60F9211248F939F938091E10028
:103620009091E100937F9093E10083FF0FC010928F
:10363000E90091E09093EB001092EC0092E39093FC
:10364000ED001092C00298E09093F00082FF22C03B
:1036500093E09093E9009091F200992319F09AE396
:103660009093E8009091AF02992341F09091AF02BE
:1036700091509093AF02911101C05D9A9091BF0259
:10368000992341F09091BF0291509093BF02911104
:1036900001C0289A84FF18C08091E2008E7E81606C
:1036A0008093E2008091E1008F7E8093E100809121
:1036B000B0028E7E80618093B0029F918F910F90B7
:1036C0000FBE0F901F90189580FFF7CF8091E200FA
:1036D0008E7E80618093E2008091E1008E7E8093F7
:1036E000E1008091B0028E7E8160E5CF1F920F9243
:1036F0000FB60F921124CF92DF92EF92FF920F93A9
:103700001F932F933F934F935F936F937F938F9369
:103710009F93AF93BF93EF93FF93CF93DF93CDB777
:10372000DEB76C97DEBFCDBF1092E9008091E80054
:1037300083FF25C068E0CE0145960E94EE0682EF29
:103740008093E8008D8987FF39C09091E80090FF51
:10375000FCCF982F907609F034C19E894F89588DFF
:103760002F89F88C911131C0803861F58091B102B8
:103770008093F1001092F1008EEF8093E8006C9638
:103780000FB6F894DEBF0FBECDBFDF91CF91FF9192
:10379000EF91BF91AF919F918F917F916F915F91C9
:1037A0004F913F912F911F910F91FF90EF90DF90DC
:1037B000CF900F900FBE0F901F9018959EEF909393
:1037C000E800C7CF1092F100D5CF913059F48111A4
:1037D000D3CF4130510581F68091B1028D7F809326
:1037E000B102CACF933049F48111C6CF413051059F
:1037F00019F68091B1028260F2CF953041F4809148
:10380000E80080FFFCCF20682093E300B5CF96301E
:1038100009F0A9C00B8D1C8D22E01092E9001092D6
:10382000AD021092AC02F2122EC01092AB021092B6
:10383000AA020E943C071F8299E09983FA8291E0D4
:103840009E8390EA98879AEF99872091AC023091F5
:10385000AD02275F3F4F3C832B838D831092E9009D
:103860001092AD021092AC021093AB020093AA0228
:1038700049E050E0BE016F5F7F4F80E00E94B706D5
:103880000E943C0779CF1093AB020093AA020E94DA
:103890002807DC0112960D911C910115110509F400
:1038A00051C1D801ED91FC910480F581E02DBE015C
:1038B0006B5E7F4FC8010995009709F03EC1F80182
:1038C00000851185EACFF3E0FF120EC08F898823AF
:1038D00009F440C0823061F440E860E18EED96E08A
:1038E0000E94111F811148CF81E28093EB0047CFE6
:1038F000813029F440E86BE082ED96E0F1CF83302F
:1039000099F70E942807DC011296ED90FC908E0139
:103910000F5F1F4F6801E114F10479F0D701ED91B9
:10392000FC910680F781E02DB801C7010995080FC9
:10393000111DF701E084F184EECFD8011C92F6014D
:1039400001900020E9F73197BF016C197D0940E033
:10395000C601C6CF6CEB76E0FB01449150E080E8F5
:103960000E94B70609CF973009F4BECF983021F4F2
:1039700081E08093F10000CF993009F0FDCE837093
:1039800009F0B2CFE1E0F1E081E031E096E321918E
:10399000222371F08093E9003093EB00DF0111974F
:1039A0002C912093EC009093ED008F5F873079F796
:1039B0008EE78093EA001092EA008F898093C0021C
:1039C000DBCE8B8D9C8D1092E9001092AD0210928F
:1039D000AC029093AB028093AA02898D811192C0B0
:1039E0008E899D89913A49F4813209F07DCF47E073
:1039F00050E06BE071E080E0B3CF913209F074CF1A
:103A0000833269F48F89988DB0E0A0E0809307013C
:103A100090930801A0930901B0930A01ADCE8032C2
:103A200069F48091E80082FFFCCF67E08BE091E0D1
:103A30000E94EE068BEF8093E8009ECE823209F062
:103A40009BCE8F8980931201EEEFFFE785919491D1
:103A50008B3F9C4D51F1E0E0F8E080910B0190919B
:103A60000C01A0910D01B0910E01803B9440A10585
:103A7000B105F1F48091120180FD1AC0EE3F8AE099
:103A8000F80789F587E797E7918380838091600045
:103A90008093AE0288E19BE00FB6F894A8958093DE
:103AA00060000FBE9093600067CEEEEFFAE0D5CFD6
:103AB000808191818737974709F05ECEA8958091E4
:103AC00060008861809360008091AE028093600006
:103AD000EE3F2AE0F20789F08091FE0A9091FF0AFA
:103AE0009183808349CE808191818737980751F2F5
:103AF0009093FF0A8093FE0AC5CF1092FF0A10929E
:103B0000FE0A3ACE0E942807DC0112960D911C9104
:103B10000115110509F4E8CED801ED91FC91019051
:103B2000F081E02DBE016B5E7F4FC80109958111C8
:103B300023CEF80100851185EBCF181619060CF479
:103B40001BCED2CEF1E0FF12BECE60EC76E004CF09
:103B50001F920F920FB60F9211242F933F938F93C2
:103B60009F93AF93BF938091960290919702A091FB
:103B70009802B09199023091950223E0230F2D37DE
:103B800058F50196A11DB11D2093950280939602D0
:103B900090939702A0939802B093990280919A0211
:103BA00090919B02A0919C02B0919D020196A11D53
:103BB000B11D80939A0290939B02A0939C02B093B4
:103BC0009D02BF91AF919F918F913F912F910F9047
:103BD0000FBE0F901F90189526E8230F0296A11D87
:103BE000B11DD2CF1F920F920FB60F9211242F93B7
:103BF0003F934F935F936F937F938F939F93AF9375
:103C0000BF93EF93FF938091B900887F803609F4CA
:103C10004AC0F0F5883209F4A7C018F5803109F4DC
:103C20009BC0B8F4882309F4F9C0883009F494C023
:103C3000FF91EF91BF91AF919F918F917F916F9184
:103C40005F914F913F912F910F900FBE0F901F905A
:103C50001895883109F488C0803251F780936E023C
:103C600014C0803409F49DC040F48033B9F3883324
:103C7000F9F680936E0285ECB0C0803509F485C0FA
:103C8000883509F496C0883499F60E94CF1AD0CFAF
:103C9000883909F48CC038F5883729F050F4883613
:103CA00011F0803729F683E080936F0210926D0245
:103CB00057C0883809F47BC0803919F0803809F082
:103CC000B7CF80916D02803208F071C0E0916D0233
:103CD00081E08E0F80936D028091BB00F0E0E35B8A
:103CE000FD4F80833DC0803B39F0E0F4803A09F419
:103CF00079C0883A09F09CCF84E080936F021092DB
:103D00004C0210924B02E091B502F091B602099577
:103D100080914B0281110FC081E080934B02109281
:103D20002B0209C0803C09F4A6CF883C09F4A3CF3C
:103D3000883B09F07DCFE0914C0281E08E0F8093AB
:103D40004C02F0E0E55DFD4F80818093BB009091D7
:103D50004C0280914B0229C0809194028093BB0059
:103D600085EC8093BC0064CF909193028091920285
:103D7000981758F5E091930281E08E0F809393029B
:103D8000F0E0EE58FD4F8081E9CFE091930281E0B1
:103D90008E0F809393028091BB00F0E0EE58FD4FB0
:103DA000808390919302809192029817C8F285E8DF
:103DB000D8CFE091930281E08E0F8093930280919F
:103DC000BB00F0E0EE58FD4F8083809171028111BD
:103DD0005CCF81E08093700284EA8093BC001092F3
:103DE0006F0226CF85EC8093BC0010926F02809109
:103DF0006D02803230F4E0916D02F0E0E35BFD4F44
:103E0000108260916D0270E0E091B302F091B40213
:103E10008DE492E0099510926D020ACF10926E0225
:103E200034CFEF92FF920F931F93CF93DF93F82E2F
:103E3000192FE62E042F81E0860F880F0E94890635
:103E400083E00E948906CF2DD12FEC0EFD2EF11CB0
:103E5000CE15DF05B9F007FF13C0FE0184910E9463
:103E60008906182F80E00E948906812321968111FE
:103E7000EFCFDF91CF911F910F91FF90EF900895B9
:103E80008881EDCF81E0F5CF8093230340E060E0AF
:103E900080E00E94F8161092230340E060E080E08A
:103EA0000C94F8161092C8021092C70288EE93E0A4
:103EB000A0E0B0E08093C9029093CA02A093CB0225
:103EC000B093CC022FE231E03093C6022093C502BA
:103ED0002FEF3FEF3093D2022093D102109247038D
:103EE000109246038093480390934903A0934A039A
:103EF000B0934B0381E491E0909345038093440396
:103F00001092230380911B03811113C0109216039A
:103F1000109215038BEF9BE0909318038093170387
:103F200086E390E090931A038093190381E08093D5
:103F30001B030E948616FC01A385B485109709F027
:103F4000C2C085E193E0948783878585968520911B
:103F5000190330911A03820F931F96878587109259
:103F600035031092340383E591E0909333038093FB
:103F7000320380912A03811113C0109225031092FD
:103F8000240381E39CE090932703809326038FE230
:103F900090E0909329038093280381E080932A0383
:103FA0000E948616FC01A385B485109709F096C07F
:103FB00084E293E094878387858596852091280302
:103FC00030912903820F931F9687858710925303A0
:103FD0001092520320E830E03093550320935403AD
:103FE00080E290E0909357038093560330935903F7
:103FF0002093580390935B0380935A0310926603B7
:1040000010925D0310925C0310925F0310925E03A6
:1040100081E080936503809364032FEF3FEF30933B
:1040200063032093620330936103209360038093C2
:1040300067031092680310926A03109269038FE578
:1040400091E0909351038093500310926C0310926F
:104050006B0384E493E090936E0380936D0310925E
:10406000700310926F038FEF809374038093750336
:10407000809376038093770384E08093780380E8CD
:104080009AE1A6E0B0E08093850390938603A09325
:104090008703B093880380EA96E8A1E0B0E08093BC
:1040A000890390938A03A0938B03B0938C0380E5DC
:1040B00080938E0310928F036AE871E08EE393E0A1
:1040C0000C94B61ADC018D919C9111970097D1F751
:1040D00085E193E08D939C9338CFDC018D919C9189
:1040E00011970097D1F784E293E08D939C9364CF6E
:1040F000CF93DF93CDB7DEB72C970FB6F894DEBF22
:104100000FBECDBF789484B5826084BD84B58160D4
:1041100084BD85B5826085BD85B5816085BD809192
:104120006E00816080936E0010928100809181000A
:104130008260809381008091810081608093810002
:1041400080918000816080938000809191008260E6
:104150008093910080919100816080939100809183
:1041600090008160809390008091C1008460809372
:10417000C1008091C10082608093C1008091C10024
:1041800081608093C1008091C30081608093C300EF
:104190008091C00082608093C0008091C2008160E5
:1041A0008093C20080917A00846080937A0080912D
:1041B0007A00826080937A0080917A008160809397
:1041C0007A0080917A00806880937A001092C00211
:1041D0001092B1021092B0028091D700816080935A
:1041E000D70080EA8093D80089B5806189BD89B500
:1041F000826089BD09B400FEFDCF61E070E080E01F
:1042000090E00E9415098091D8008F7C8061809396
:10421000D8008091E000807F8093E0008091E100F1
:104220008E7E8093E1008DE08093E200559A209A83
:104230008FEF9FEF9093D2028093D10280916F0312
:1042400090917003892B11F10E945A182091560306
:1042500030915703809154039091550321323105D9
:104260000CF083C0B9016052710977FF02C06F5F23
:104270007F4F759567958357910997FD019600E2E9
:1042800010E023E730E04BE557E082C02091560371
:1042900030915703C901079697FD0796B3E09595AE
:1042A0008795BA95E1F72091540330915503AC01FD
:1042B000429FC001439F900D529F900D11240E9478
:1042C00054299093700380936F03892B09F0BCCF1E
:1042D00060E084E00E94920860E085E00E9492081D
:1042E00060E086E00E94920860E087E00E94920809
:1042F00062E088E00E94920861E089E00E949208F2
:1043000061E08BE00E94920861E080E00E949208E8
:1043100061E082E00E94920880E0E82E80E0F82EC2
:10432000CC24C394D12C87E00E943B08019709F06C
:1043300012C286E00E943B08019709F00CC285E09A
:104340000E943B08019709F006C284E00E943B08E6
:10435000892B09F000C28091BD029091BE02892B89
:1043600009F42BC20E94221734C2B90160547109AA
:1043700077FF02C06F5F7F4F7595679582559109F2
:1043800097FD019600E410E022E530E04BE359E0B0
:10439000959587950E94401182E0809372038091E9
:1043A0006D0390916E03892B09F4DFC08CE3809339
:1043B00071031092B8021092B7021092C2021092CA
:1043C000C1020E94751287E896E09093B60280932E
:1043D000B50288E896E09093B4028093B30280918E
:1043E000780387FD1EC061E00E94920861E0809121
:1043F00078030E94640861E070E080E090E00E9431
:10440000150960E0809178030E9464086AE070E01A
:1044100080E090E00E94150961E0809178030E949D
:10442000640880916D0390916E03892B09F45CC13F
:104430002091850330918603409187035091880332
:1044400060E074E284EF90E00E942C292051310951
:104450004109510956954795379527952093B800FE
:1044600064E08BE097E00E94201460915603615055
:1044700080E593E00E94D51464E087E097E00E9415
:1044800020148091720360E1813009F064E180E5DD
:1044900093E00E94D51464E083E097E00E9420142A
:1044A0008FE880938D038091540390915503803859
:1044B000910509F032C180915603909157038034E1
:1044C000910509F03AC180917203813009F023C14E
:1044D0008FE980938D0312E16AED80E593E00E94FD
:1044E000D514612F80E593E00E94D51461E880E542
:1044F00093E00E94D51460918D0380E593E00E94C3
:10450000D51469ED80E593E00E94D5148091720383
:1045100062E2813009F061EF80E593E00E94D514FA
:1045200066E08DEF96E00E94201480916D039091DB
:104530006E03892B09F405C12091890330918A0308
:1045400040918B0350918C0360E074E284EF90E023
:104550000E942C292051310941095109569547954E
:10456000379527952093B800B3CE61E0809176030C
:104570000E94920861E0809177030E9492088091E6
:104580007603082E000C990BFC01E45CF84FE491D3
:10459000F0E0EE0FFF1FE25DF84F2591349130936C
:1045A0007E0320937D03FC01E15FF84FE491E093EB
:1045B000830380917703082E000C990BFC01E45CC7
:1045C000F84FE491F0E0EE0FFF1FE25DF84FA59188
:1045D000B491B0938003A0937F03FC01E15FF84F97
:1045E000E491E09384038C91E82BEC9380916B032E
:1045F00090916C03892B09F434C01FB7F894809113
:10460000B202811127C0EDE4F7E08491E0E2F7E027
:104610009491E82FF0E0EE0FFF1FE151F94FA591C3
:10462000B491EC91E92321F461E081E10E946408F6
:1046300061E081E10E9492088CB580618CBD8CB5EF
:1046400080648CBD61E08FE00E94920861E080E1AF
:104650000E9492088091B2028F5F8093B2021FBFC6
:10466000BECE61E0809174030E94920861E0809167
:1046700075030E94920880917403082E000C990B18
:10468000FC01E45CF84FE491F0E0EE0FFF1FE25D07
:10469000F84F2591349130937A0320937903FC01EC
:1046A000E15FF84FE491E093810380917503082E58
:1046B000000C990BFC01E45CF84FE491F0E0EE0F84
:1046C000FF1FE25DF84FA591B491B0937C03A093D6
:1046D0007B03FC01E15FF84FE491E09382038C914E
:1046E000E095E823EC937BCE80916B0390916C0373
:1046F000892B31F080918E0390918F030E94560C8C
:10470000E0917F03F09180039081809184038095F4
:1047100089238083A5CE8FECDCCE8036910569F4A9
:104720008091560390915703409739F4809172031A
:10473000813029F480E180938D0312E0CDCE8FEAA1
:10474000FACFE0917F03F091800380819091840300
:10475000892B8083BDCD0091BB021091BC02011555
:10476000110509F046C087E00E943B08019709F057
:1047700099C486E00E943B08019709F093C485E044
:104780000E943B08892B09F08DC484E00E943B08FD
:10479000019709F087C40E94221763E882E393E03F
:1047A0000E945B1760E882E393E00E945B1768ED6C
:1047B00082E393E00E945B17D5CD8091BB0290917C
:1047C000BC028530910574F401969093BC028093ED
:1047D000BB026091170170911801072E000C880B25
:1047E000990BCDC00597A9F71092BC021092BB029D
:1047F000F0CF0130110531F587E00E943B080197A9
:1048000009F050C486E00E943B08019709F04AC4B1
:1048100085E00E943B08892B09F044C484E00E9493
:104820003B08019709F03EC40E94221760E882E32A
:1048300093E00E945B1761E882E393E00E945B17BC
:1048400063EBB6CF0230110509F024C487E00E9463
:104850003B08019709F02EC486E00E943B080197AF
:1048600009F028C485E00E943B08892B09F022C486
:1048700084E00E943B08019709F01CC40E942217A3
:1048800062E891CF87E00E943B08019709F012C4CB
:1048900086E00E943B08019709F00CC485E00E9465
:1048A0003B08892B09F006C484E00E943B0801976D
:1048B00009F000C40E94221760E882E393E00E949E
:1048C0005B176AE775CF87E00E943B08019709F004
:1048D000F9C386E00E943B08019709F0F3C385E025
:1048E0000E943B08892B09F0EDC384E00E943B083D
:1048F000019709F0E7C30E94221760E882E393E082
:104900000E945B1763E654CF87E00E943B08019743
:1049100009F0DCC386E00E943B08019709F0D6C38A
:1049200085E00E943B08892B09F0D0C384E00E94F7
:104930003B08019709F0CAC32091B9023091BA022D
:104940000091170110911801C9010297029720F0F8
:1049500081E00E94441F0FC08091150190911601C3
:10496000823091057CF023303105A9F001979093B6
:10497000160180931501B801110F880B990B0E9445
:10498000150910C0809113019091140101962330F4
:10499000310509F055C2B8016150710910161106B0
:1049A0000CF45FC282E10E94CE088D3291409CF4EB
:1049B000409115018091B9029091BA02019709F0D6
:1049C0005DC260E080E00E94F8166CE070E080E07C
:1049D00090E00E94150982E10E94CE088C3B924033
:1049E000E4F0609115010091130110911401809180
:1049F000B9029091BA02019709F04FC2462F419532
:104A000060E080E00E94F816B801655F7F4F072ED6
:104A1000000C880B990B0E94150983E10E94CE08B7
:104A20008D32914024F5B090150100911301109141
:104A300014018091B9029091BA02019709F036C22F
:104A40000E94221761E882E393E00E945B174B2DDE
:104A500060E080E00E94F8160E942217B801655FAE
:104A60007F4F072E000C880B990B0E94150983E1DC
:104A70000E94CE088C3B92402CF1B0901501009121
:104A80001301109114018091B9029091BA0201971B
:104A900009F017C20E94221761E882E393E00E94A6
:104AA0005B174B2D419560E080E00E94F8160E9454
:104AB0002217B801655F7F4F072E000C880B990BFA
:104AC0000E9415098091BB029091BC028130910532
:104AD00009F001C28CE891E00E9440186CE871E096
:104AE000811105C2E114F10409F41DCC0E940000FB
:104AF0001ACC87E00E943B08019709F0EBC286E0E0
:104B00000E943B08892B09F0E5C285E00E943B0822
:104B1000019709F0DFC284E00E943B08019709F089
:104B2000D9C20E94221763E882E393E00E945B17D8
:104B300060E882E393E00E945B1767ED39CE87E07F
:104B40000E943B08019709F0C9C286E00E943B0819
:104B5000892B09F0C3C285E00E943B08019709F048
:104B6000BDC284E00E943B08019709F0B7C20E94D1
:104B7000221760E861CE87E00E943B08019709F0A8
:104B8000B1C286E00E943B08892B09F0ABC285E0E8
:104B90000E943B08019709F0A5C284E00E943B08EF
:104BA000019709F09FC20E94221762E8C2CF87E0F6
:104BB0000E943B08019709F099C286E00E943B08D9
:104BC000892B09F093C285E00E943B08019709F008
:104BD0008DC284E00E943B08019709F087C20E94C1
:104BE000221760E882E393E00E945B1761E882E3AA
:104BF00093E00E945B176AE782E393E00E945B17F1
:104C00000E94221760E882E393E00E945B1769E745
:104C1000CFCD87E00E943B08019709F06BC286E088
:104C20000E943B08892B09F065C285E00E943B0881
:104C3000019709F05FC284E00E943B08019709F0E8
:104C400059C20E94221760E882E393E00E945B173A
:104C500066E7AECD87E00E943B08019709F04EC29F
:104C600086E00E943B08892B09F048C285E00E943B
:104C70003B08019709F042C284E00E943B08813062
:104C8000910509F03BC22091B9023091BA0221305E
:104C9000310529F41092BA021092B9029ACD90937C
:104CA000BA028093B90295CD87E00E943B08892B18
:104CB00009F028C286E00E943B08019709F022C251
:104CC00085E00E943B08019709F01CC284E00E9425
:104CD0003B085C01019709F015C28091BD029091DB
:104CE000BE02892BC1F40E94221762E882E393E09E
:104CF0000E945B1763EB82E393E00E945B17B09224
:104D0000BE02A092BD020E94221762E882E393E0F5
:104D10000E945B175ECD63EB82E393E00E945B171A
:104D2000F2CF87E00E943B08892B09F03BCE86E05A
:104D30000E943B08019709F035CE85E00E943B08B0
:104D4000019709F02FCE84E00E943B08019709F0FB
:104D500029CE0E94221763E882E393E00E945B174A
:104D600064E726CD87E00E943B08892B09F01ACE24
:104D700086E00E943B08019709F014CE85E00E946E
:104D80003B08019709F00ECE84E00E943B08019792
:104D900009F008CE0E94221760E882E393E00E94A7
:104DA0005B1761E605CD87E00E943B08892B09F07F
:104DB000F9CD86E00E943B08019709F0F3CD85E02C
:104DC0000E943B08019709F0EDCD84E00E943B086A
:104DD000019709F0E7CD0E94221760E882E393E093
:104DE0000E945B1763E7E4CC87E00E943B08892BB5
:104DF00009F0D8CD86E00E943B08019709F0D2CD9A
:104E000085E00E943B08019709F0CCCD84E00E9428
:104E10003B08019709F0C6CD0E94221760E882E3A3
:104E200093E00E945B1768E7C3CC809113019091D7
:104E30001401181619064CF42330310579F0019746
:104E4000909314018093130196CD80911501909158
:104E5000160101962330310509F089CDB8016F5F45
:104E60007F4F7093180160931701B7CC039709F037
:104E700099CD1092BA021092B90205C1642F6195C2
:104E800040E080E00E94F8166091130170911401D7
:104E9000072E000C880B990B9CCD40E080E00E940F
:104EA000F816B801110F880B990BB5CD40E060E002
:104EB0008B2D81950E94F816B801110F880B990B64
:104EC000D4CD40E060E08B2D0E94F816B801110FA0
:104ED000880B990BF5CD8230910581F484E991E03E
:104EE0000E94401864E971E0882309F4FBCD8EE349
:104EF00093E00E94801A0E947A18F4CD83309105C5
:104F000051F48CE991E00E9440186CE971E088232B
:104F100009F4E8CDECCF8430910551F483EA91E0B7
:104F20000E94401863EA71E0882309F4DBCDDFCFEB
:104F3000059709F081C08091B9029091BA02813041
:104F4000910551F489EA91E00E94401869EA71E004
:104F5000882309F4C7CDCBCF8230910559F56091F4
:104F60001501709116018091130190911401681B35
:104F7000790BCE0107960E948A1A6DEA71E0CE0184
:104F800001960E94B61ABE01695F7F4FCE0101965D
:104F90000E94141A0E940C18182FCE0101960E942C
:104FA000C71A62EB71E0111129C0CE0107960E9469
:104FB000C71A98CD0397B1F5609117017091180148
:104FC0006E5B7109CE0107960E948A1A67EB71E049
:104FD000CE0101960E94B61ABE01695F7F4FCE01D5
:104FE00001960E94141A0E940C18182FCE010196E7
:104FF0000E94C71A1123C9F267EB71E0CE01019636
:105000000E94B61ABE01695F7F4FCE0101960E94D1
:10501000141A0E94681ACE0101960E94C71A0E94B3
:105020007A18C3CF8CEB91E00E9440186CEB71E0D2
:10503000882309F457CD5BCF84EC91E00E9440189F
:10504000882309F44FCD64EC71E051CF88E00E94D1
:105050003B08892B09F0A6CC8091B9029091BA0245
:10506000833091050CF002CF892B21F4D092BA0243
:10507000C092B9028091B9029091BA0201969093C0
:10508000BA028093B90260911701709118016E5CA9
:105090007F4FA3CB0330110509F4F4CB0430110585
:1050A00009F411CC0530110509F42ECC01151105B8
:1050B00009F41FCD0130110509F441CD023011056D
:1050C00009F459CD0330110509F471CD04301105EF
:1050D00009F49FCD0530110509F4BCCD011511056A
:1050E00009F4E2CD0130110509F41BCE023011059F
:1050F00009F438CE0330110509F455CE04301105FA
:1051000009F472CE0530110509F04CCC87E00E94FD
:105110003B08892B09F09ACF86E00E943B08019753
:1051200009F094CF85E00E943B08019709F08ECFEB
:1051300084E00E943B08019709F088CF2091B902D2
:105140003091BA020091170110911801C90102971C
:10515000029708F46ACE82E0FCCB8EE393E00E94D3
:10516000C71A8FE591E0909351038093500380918B
:105170006F0390917003009711F00C94F02908953B
:10518000BB274A3031F4992322F4BDE290958195F2
:105190009F4F0C94CC28BB27FB015527AA27880FCB
:1051A000991FAA1FA41710F0A41B83955051B9F79B
:1051B000A05DAA3308F0A95DA193009779F7B1111A
:1051C000B1931192CB010C94E528DC01FC01672F0F
:1051D00071917723E1F7329704C07C916D937083CE
:1051E0006291AE17BF07C8F308952F923F924F9276
:1051F0005F926F927F928F929F92AF92BF92CF9267
:10520000DF92EF92FF920F931F93CF93DF93CDB76F
:10521000DEB7CA1BDB0B0FB6F894DEBF0FBECDBFE7
:1052200009942A88398848885F846E847D848C84B8
:105230009B84AA84B984C884DF80EE80FD800C81C1
:105240001B81AA81B981CE0FD11D0FB6F894DEBFA4
:105250000FBECDBFED010895A1E21A2EAA1BBB1B04
:10526000FD010DC0AA1FBB1FEE1FFF1FA217B30732
:10527000E407F50720F0A21BB30BE40BF50B661F48
:10528000771F881F991F1A9469F76095709580950C
:1052900090959B01AC01BD01CF010895EE0FFF1F5A
:1052A0000590F491E02D09940F931F93CF93DF9312
:1052B0008230910510F482E090E0E0919203F09149
:1052C000930330E020E0B0E0A0E0309799F421159E
:1052D000310509F44AC0281B390B24303105D8F5B3
:1052E0008A819B816115710589F1FB01938382831A
:1052F000FE0111C040815181028113814817590775
:10530000E0F04817590799F4109761F012960C9342
:10531000129713961C933296CF01DF91CF911F9174
:105320000F9108950093920310939303F4CF2115E6
:10533000310551F04217530738F0A901DB019A01FA
:10534000BD01DF01F801C1CFEF01F9CF90939303C5
:1053500080939203CDCFFE01E20FF31F81939193CF
:105360002250310939832883D7CF2091900330917F
:105370009103232B41F420911B0130911C013093A8
:105380009103209390032091190130911A01211566
:10539000310541F42DB73EB740911D0150911E01DA
:1053A000241B350BE0919003F0919103E217F30772
:1053B000A0F42E1B3F0B2817390778F0AC014E5F85
:1053C0005F4F2417350748F04E0F5F1F509391032E
:1053D00040939003819391939FCFF0E0E0E09CCFC6
:1053E000CF93DF930097E9F0FC013297138212828A
:1053F000A0919203B0919303ED0130E020E010976B
:10540000A1F420813181820F931F2091900330916C
:1054100091032817390709F061C0F0939103E093D5
:105420009003DF91CF910895EA01CE17DF07E8F5E9
:105430004A815B819E0141155105B1F7E901FB836A
:10544000EA8349915991C40FD51FEC17FD0761F408
:10545000808191810296840F951FE9019983888349
:10546000828193819B838A83F0E0E0E012968D91A4
:105470009C9113970097B9F52D913C911197CD010F
:105480000296820F931F2091900330919103281769
:10549000390739F6309751F5109293031092920321
:1054A000B0939103A0939003BCCFD383C283408178
:1054B0005181840F951FC817D90761F44E5F5F4F64
:1054C00088819981480F591F518340838A819B812C
:1054D000938382832115310509F0B0CFF0939303B4
:1054E000E09392039ECFFD01DC01C0CF13821282B4
:1054F000D7CFB0E0A0E0EFE7FAE20C94F7288C01F8
:10550000009751F4CB010E9454298C01C801CDB7FA
:10551000DEB7E0E10C941329FC01E60FF71F9C01B4
:1055200022503109E217F30708F49DC0D901CD914B
:10553000DC911197C617D70798F0C530D10530F325
:10554000CE0104978617970708F3C61BD70B22973F
:10555000C193D1936D937C93CF010E94F029D6CF54
:105560005B01AC1ABD0A4C018C0E9D1EA0919203EA
:10557000B0919303512C412CF12CE12C109731F573
:1055800080919003909191038815990509F05CC072
:105590004616570608F058C08091190190911A01DB
:1055A000009741F48DB79EB740911D0150911E01A7
:1055B000841B950BE817F90708F055C0F093910389
:1055C000E0939003F90171836083A0CF8D919C914A
:1055D000119712966C90129713967C901397A815BA
:1055E000B90559F56C0142E0C40ED11CCA14DB04A4
:1055F00020F1AC014A195B09DA011296159780F087
:105600006282738251834083D9016D937C93E1144C
:10561000F10471F0D7011396FC93EE93129776CFB5
:1056200022968C0F9D1FF90191838083F301EFCFA8
:10563000F0939303E093920369CF4816590608F458
:105640002C017D01D3019ACFCB010E9454297C010A
:10565000009749F0AE01B8010E943B2BC8010E949F
:10566000F029870153CF10E000E050CF81E090E0B7
:10567000F8940C945B2BFB01DC0102C001900D92AD
:1056800041505040D8F70895DC0101C06D9341505E
:105690005040E0F70895FB01DC018D9101908019E5
:1056A0000110D9F3990B0895FB01DC0101900D92D3
:1056B0000020E1F7089516E0C1E3D6E004C0FE0142
:1056C0000E944E292196C233D107C9F7F894FFCF23
:1056D00000C18081000000FFFFFFFF00E10000002B
:1056E00000000001000100BE0000009403800000E3
:1056F0000000008D153B160016E515000000006D3A
:1057000007E2098E078307D5079307B1070000005A
:10571000000A13DD1209185C06D612C312B4120077
:10572000000000C3172F1709180818000000009484
:105730000EFB06091808189F0B5C06391111112D74
:10574000112111A1115C065A0C37150F0B580B5A79
:10575000103D10C50F660F0D0A00740053542054FD
:105760002057540053422053462041005A20535A98
:10577000205300432056205800572E4D00572E53DB
:105780003A004D2E533A00422E533A004D4C2057CA
:0C579000204D52003C203E2041540000FF
:2070000055C000006EC000006CC000006AC0000068C0000066C0000064C0000062C0000043
:2070200060C000005EC00000F2C400005AC0000058C0000056C0000054C0000052C00000EE
:2070400050C0000078C000004CC000004AC0000048C0000046C0000044C0000042C00000BE
:2070600040C000003EC000003CC000003AC0000038C0000036C0000034C0000032C0000048
:2070800030C000002EC000002CC000002AC0000028C0000026C0000024C0000022C00000A8
:2070A00020C000001EC000001CC0000011241FBECFEFDAE0DEBFCDBF11E0A0E0B1E0E2E3BC
:2070C000FFE702C005900D92A83AB107D9F711E0A8EAB1E001C01D92AE3BB107E1F78FD30B
:2070E00026C78ECFF89410926F0010928100109285001092840081E085BF15BE47985D9AEB
:20710000289A0C94000008952091B2013091B3012F5F3F4F3093B3012093B201932F37FFA6
:2071200003C08EEF831B982F990F921710F447980895479A08951F920F920FB60F9211246E
:207140002F938F939F93EF93FF9310928500109284008091A8019091A901009741F00197D3
:207160009093A9018093A801892B09F45D9A8091AA019091AB01009741F001979093AB0126
:207180008093AA01892B09F4289AE0E0F0E0859194918F5F9F4F49F08091AC019091AD0151
:2071A00001969093AD018093AC01FF91EF919F918F912F910F900FBE0F901F90189584E0BC
:2071C0008093E9000DC08091E8008B778093E80003C08EB3882351F08091E80082FFF9CFBE
:2071E0008091E80085FFEFCF8091F1000895982F83E08093E9008091E80085FD0DC0809136
:20720000E8008E778093E80003C08EB3882369F08091E80080FFF9CF9093F1005D9884E6CB
:2072200090E09093A9018093A80108954F925F926F927F928F929F92AF92BF92CF92DF921E
:20724000EF92FF920F931F93CF93DF9384E08093E9008091E80082FF57C2289884E690E067
:207260009093AB018093AA01AADF182F853481F48CE49DE19093AD018093AC0107B600FC4B
:20728000FDCFF999FECF81E180935700E89503C0843519F494DF8DE00DC28C34E1F38035F9
:2072A000D1F3843721F484E4A2DF80E003C2813611F489E5FFC18134B1F481DF182F7FDFE3
:2072C00090E0880F991FAA2797FDA095BA2F312F330F20E0442737FD4095542F822B932B68
:2072E000A42BB52BB8C1803711F483E5E3C1833549F4C0E0D1E089917ADF21E0C730D20714
:20730000D1F7D9C1863521F481E371DF80E3D2C1833731F487E86BDF85E969DF8EE1CAC149
:207320008536B9F4E0E0F0E093E085E090935700E89507B600FCFDCF80935700E89507B65D
:2073400000FCFDCFE058FF4FA0E7E030FA0771F7A2CF823739F4E1E0F0E089E08093570024
:207360008491A8C1863439F4E0E0F0E089E08093570084919FC18E3439F4E3E0F0E089E0E5
:2073800080935700849196C1813539F4E2E0F0E089E08093570084918DC1823631F489E521
:2073A00026DF80E024DF80E885C1823419F0873609F0E5C01092AD011092AC0100DF082FE8
